:020000040800F2
:10000000B007002031020008A71C0008791A000878
:10001000A51C0008C7060008D52200080000000043
:10002000000000000000000000000000AB1C000801
:10003000C906000800000000A91C0008AD1C00084B
:100040004B0200084B0200084B0200084B0200085C
:100050004B0200084B0200084B0200084B0200084C
:100060004B0200084B0200084B0200084B0200083C
:100070004B0200084B0200084B0200084B0200082C
:100080004B0200084B0200084B0200084B0200081C
:100090004B0200084B0200084B0200084B0200080C
:1000A0004B0200084B0200084B0200084B020008FC
:1000B0004B0200084B0200084B0200084B020008EC
:1000C0004B0200084B0200084B0200084B020008DC
:1000D0004B020008C92200084B0200084B0200082E
:1000E0004B0200084B0200084B0200084B020008BC
:1000F0004B0200084B0200084B0200084B020008AC
:100100004B0200084B0200084B0200084B0200089B
:100110004B0200084B0200084B0200084B0200088B
:100120004B0200084B0200084B0200084B0200087B
:100130004B0200084B0200084B0200084B0200086B
:100140004B0200084B0200084B0200084B0200085B
:100150004B0200084B0200084B0200084B0200084B
:100160004B0200084B0200084B0200084B0200083B
:100170004B0200084B0200084B0200080000000080
:100180004B0200084B02000800F002F800F041F8B2
:100190000AA090E8000C82448344AAF10107DA45E2
:1001A00001D100F036F8AFF2090EBAE80F0013F0F3
:1001B000010F18BFFB1A43F001031847502200003B
:1001C00070220000103A24BF78C878C1FAD85207CC
:1001D00024BF30C830C144BF04680C6070470000C1
:1001E0000023002400250026103A28BF78C1FBD840
:1001F000520728BF30C148BF0B607047642900F028
:10020000C980002070471FB502F0EEF81FBD10B581
:1002100010BD00F01EFA1146FFF7F5FF02F06CF872
:1002200000F03CFA03B4FFF7F2FF03BC00F044FA1D
:100230000948804709480047FEE7FEE7FEE7FEE77A
:10024000FEE7FEE7FEE7FEE7FEE7FEE704480549B6
:10025000054A064B70470000451D0008890100084B
:10026000B0010020B0070020B0030020B003002040
:1002700053EA020C00F069802DE9F04B4FF00006C4
:10028000002B1FBFB3FA83F503FA05F424FA05F631
:100290005E4012BF1643B2FA82F502FA05F4C5F1C8
:1002A00020051EBF22FA05FC44EA0C04203556EA5C
:1002B000044C4FEA144418BF641C4FF000084FF080
:1002C0000009904271EB030C39D3002919BFB1FA30
:1002D00081F701FA07F6B0FA80F700FA07F6C7F1DE
:1002E00020071EBF20FA07FC46EA0C062037B6FBA3
:1002F000F4FCA7EB0507103F07F01F0BCBF120061E
:100300000CFA0BFB2CFA06F644BFB3460026202F4E
:10031000A4BF5E464FF0000B5BEA060C08BF4FF02F
:10032000010B19EB0B09ABFB027C48EB0608C01B69
:1003300006FB02CC0BFB03CC71EB0C01C1E70B46B7
:10034000024641464846BDE8F08B13B54FF0000029
:100350004FF00001AFF30080BDE81C407047000083
:100360000FB41CB50C0007AA009001D02044401E19
:10037000074B7B4469460190069800F04AF9002C2F
:1003800003D06946002000F057F91CBC5DF814FB4F
:10039000CD0200002DE9F0410646002410687529C1
:1003A000314616A510D0AFF30080002802DA404293
:1003B00013A507E031688A0701D512A502E04907B5
:1003C00004D511A5012401E0AFF3008000210A2229
:1003D00006F1240709E0B0FBF2FCB0FBF2F302FBEC
:1003E0001C00303078541846491C0028F3D12346AD
:1003F0002A463046BDE8F04100F0ADB800000000EC
:100400002D0000002B000000200000002DE9F0412D
:100410000F460546002028622846E968884770B3E1
:10042000252805D0D5E901219047286A401CF2E72C
:10043000E9682846002688476C2804460AD0682CBC
:1004400008D04C2C35D06A2C31D0742C31D07A2C79
:100450002FD016E0E968064628468847B042044691
:1004600008D16C2E23D04FF480662846E96888476F
:10047000044606E06C2E03D04FF4807601E01EE0C7
:100480004026E4B1A4F14100192802D8203446F4F2
:1004900000663A46214628462E60FFF7AFFE60B15F
:1004A000012808D0FF1D27F007070837B4E780268A
:1004B000DBE70026D9E73F1DAEE72046B2E7286A12
:1004C000BDE8F08110B5431C02E010F8011B71B1CA
:1004D0008107FAD14FF0013202C88C1A8C4314EA1A
:1004E000C211F9D0C01A0A0603D0C01E10BDC01A2E
:1004F00010BD0A0401D0801E10BD0902FCD0401EB0
:1005000010BD4FF0000200B51346944696462039C0
:1005100022BFA0E80C50A0E80C50B1F12001BFF4BC
:10052000F7AF090728BFA0E80C5048BF0CC05DF822
:1005300004EB890028BF40F8042B08BF704748BF70
:1005400020F8022B11F0804F18BF00F8012B7047E4
:100550007047704770472DE9F0470D46994692461F
:10056000044600F124080168880604D5E06921F0FA
:100570001001216000E00120A84201DD471B00E0DE
:100580000027A1697A1902EB0900081AA0612078F6
:10059000C00602D42046AFF30080002608E0D4E96C
:1005A00001211AF806009047206A401C761C206240
:1005B0004E45F4DB2078C0060AD52046AFF3008014
:1005C00006E0D4E9012130209047206A401C2062D7
:1005D000381EA7F10107F4DC07E0D4E9012118F87F
:1005E00005009047206A401C2062281EA5F10105E5
:1005F000F3DC2046AFF300802078000602D502200D
:10060000BDE8F0870120FBE701694A1C0261087818
:10061000704700B58FB0CDE9013100210591054942
:100620007944CDE9031011466846FFF7EFFE0FB09D
:1006300000BD0000E5FFFFFF0A6802F8010B0A6039
:100640007047D1E900239A4202D2531C0B6010700C
:100650007047754600F02CF8AE46050069465346D3
:1006600020F00700854618B020B5FFF7EFFDBDE884
:1006700020404FF000064FF000074FF000084FF009
:10068000000B21F00701AC46ACE8C009ACE8C0099A
:10069000ACE8C009ACE8C0098D46704710B5044607
:1006A000AFF300802046BDE81040FFF7BBBD00005F
:1006B000004870475001002001491820ABBEFEE7FA
:1006C000260002007047FEE7704772B6FEE72DE98C
:1006D000F0410446876D00F053F9064694F8350062
:1006E0000025022806D08020606584F8345001205F
:1006F000BDE8F0812068016821F0160101602068E2
:10070000416921F080014161206C08B9A06C20B1E1
:100710002068016821F0080101602068016821F06B
:10072000010101600CE000F02BF9801B052807D9BE
:1007300020206065032084F8350084F83450D7E722
:1007400020680068C007EED194F85C103F20884014
:10075000B860012084F8350084F834500020C7E7E1
:1007600090F83510022903D080214165012070479F
:10077000052180F835100068016821F00101016051
:10078000002070472DE9F84FDFF8BCA100220125B9
:1007900003264FF00F090AF1040BAAF1040E00BF63
:1007A0000B6805FA02F42340A34270D10F7907F0D9
:1007B0000307012F01D0022F16D187684FEA4208A4
:1007C00006FA08FC27EA0C07D1F80CC00CFA08FC62
:1007D0004CEA070CC0F808C04768A7430C79C4F37B
:1007E000001494403C4344600C79E443A4070AD0CD
:1007F000C4684FEA420C06FA0CF7BC438F6807FA4C
:100800000CF72743C7600C7904F00304022C12D1C3
:10081000D40800EB840CDCF820405707FF0E09FADF
:1008200007F824EA0804D1F8108008FA07F848EA23
:100830000408CCF8208004684FEA420C06FA0CF752
:10084000BC430F7907F0030707FA0CF7274307604B
:100850004C6814F4403F70D03C4C276847F4804704
:100860002760246822F0030704F480440094384C85
:1008700007EB040CDCF8084897074FEA177809FAE9
:1008800008F7BC43334FB84202D1002724E054E0BC
:10089000314FB84201D101271EE0304FB84201D19B
:1008A000022719E02E4FB84201D1032714E02D4F43
:1008B000B84201D104270FE02B4FB84201D10527E0
:1008C0000AE02A4FB84201D1062705E0284FB84276
:1008D00001D1072700E0082707FA08F72743CCF8DB
:1008E0000878DAF800405746D1F804C09C435FEA24
:1008F000CC2C00D51C433C60DBF800405F46D1F8AF
:1009000004C09C435FEA8C2C00D51C433C60DEF89D
:1009100000407746D1F804C09C435FEA8C3C00D588
:100920001C433C60084F083F3C68D1F804C09C431E
:100930005FEACC3C00D51C433C60521C102AFFF4FB
:100940002FAFBDE8F88F0000083C0140443802405A
:100950000030014000000240000402400008024054
:10096000000C024000100240001402400018024037
:10097000001C02400AB1816170470904FBE70000D6
:100980000148806870470000080000200248816824
:100990000278114481607047080000200B4810B5B0
:1009A000016841F400710160016841F480610160F7
:1009B000016841F480710160032000F06FF80F209E
:1009C00000F006F800F024F8002010BD003C0240C2
:1009D00070B50D4D04464FF47A712878B1FBF0F0F4
:1009E0000A490968B1FBF0F000F00CFB48B9102C83
:1009F00007D200222146501E00F030F800206C6023
:100A000070BD012070BD000008000020140000200F
:100A10000A4808B5016841F480410160006800F4AB
:100A2000804000900548001F016841F0805101603E
:100A3000006800F08050009008BD0000443802407B
:100A4000002809DB00F01F020121914040098000CD
:100A500000F1E020C0F8001170470000F0B40E4B28
:100A60001B680C46C3F30223C3F10705042D00D90C
:100A70000425191D072901D2002300E0DB1E0126F1
:100A800006FA05F1491E214099409E40761E164007
:100A90003143F0BC01F01FBC0CED00E0064900F052
:100AA000070208684FF6FF03184040EA0220034A95
:100AB00010430860704700000CED00E00000FA05EC
:100AC0002DE9F0470E46050065D0DFF81481D8F80F
:100AD0000000F7B200F00700B04207D288F80070BB
:100AE000D8F8000000F00700B04254D128683D4C0F
:100AF000810712D5400703D5206840F4E0502060FC
:100B00002878000703D5206840F460402060206802
:100B1000A96820F0F000084320602878C0072DD095
:100B2000304968680839012812D0022813D00328F8
:100B300011D00968890700292DDA216821F0030105
:100B400001432160FFF71CFF814641F2883A0EE025
:100B500009688903EFE709688901ECE7FFF710FFEF
:100B6000A0EB0901514502D90320BDE8F0872068B8
:100B7000696800F00C00B0EB810FEFD1D8F80010DD
:100B8000404601F00701B14207D90770006800F044
:100B90000700B04201D00120E7E72878400705D5DB
:100BA0002068E96820F4E0500843206028780007B6
:100BB00006D52068296920F4604040EAC100206021
:100BC00000F038F82168084AC1F30311515CC840AD
:100BD0000649086006480068FFF7FAFE0020C4E7EF
:100BE000003C024008380240F223000814000020B4
:100BF0000C0000200448054900680968044AC1F354
:100C00008221515CC840704714000020083802401F
:100C1000022400080448054900680968044AC1F331
:100C20004231515CC840704714000020083802402F
:100C300002240008154810B5006810F00C02144892
:100C400013D01449042A0FD0082A0ED10F4C241FA8
:100C50002268236802F03F025B0207D52068C0F3D8
:100C60008810A0FB010106E0084610BD2168C1F311
:100C70008811A1FB00010023FFF7FAFA2168C1F3F4
:100C80000141491C4900B0FBF1F010BD0838024099
:100C90000024F40040787D012DE9F84F04006ED067
:100CA0002078DFF84C93C007A9F104054AD009F178
:100CB00004000168C1F38101012908D00068C0F374
:100CC000810002280AD1D9F80000400206D5286820
:100CD000800337D560680028E1D033E06068B0F564
:100CE000803F10D0B0F5A02F286810D020F48030BD
:100CF0002860286820F4802028606068A8B1FFF789
:100D00003FFE06460DE0286840F48030F4E740F4EA
:100D100080202860F7E700BFFFF732FE801B6428C1
:100D200073D828688003F7D50CE0FFF729FE064644
:100D300005E000BFFFF724FE801B6428F0D8286878
:100D40008003F7D42078DFF8AC8280074FF0000AE8
:100D50003ED5A748001D016811F00C0F08D00068AF
:100D6000C0F3810002280BD1D9F80000400207D45B
:100D70002868800716D5E068012800D112E033E129
:100D8000E068B8B10120C8F80000FFF7F9FD064699
:100D900005E000BFFFF7F4FD801B0228C0D82868DB
:100DA0008007F7D52868216920F0F80040EAC100E3
:100DB00028600DE0C8F800A0FFF7E2FD064604E059
:100DC000FFF7DEFD801B02281FD828688007F7D4B4
:100DD0002078000722D5864F87486169703771B146
:100DE00001210160FFF7CCFD064604E0FFF7C8FDD6
:100DF000801B022809D838688007F7D50EE0C0F8B4
:100E000000A0FFF7BDFD064605E082E0FFF7B8FD54
:100E1000801B02287DD838688007F7D420784007E7
:100E200068D5DFF8CCB100270BF13C0BDBF80000F4
:100E3000C0000BD4DBF8001041F08051CBF800105B
:100E4000DBF80000012700F0805000906B4E306806
:100E5000C00510D4306840F480703060FFF790FD1A
:100E6000009005E0FFF78CFD0099401A022850D849
:100E70003068C005F6D55E4EA0686C3601280FD0EC
:100E80000528306810D020F001003060306820F074
:100E900004003060A068B8B1FFF772FD00900FE069
:100EA000306840F00100F4E740F004003060F7E7FC
:100EB000FFF766FD0099411A41F28830814266D8F9
:100EC00030688007F4D50EE0FFF75AFD009007E088
:100ED000FFF756FD0099411A41F28830814256D8F9
:100EE00030688007F4D42FB1DBF8001021F0805176
:100EF000CBF80010A069C8B33D49091D0968C1F3CA
:100F0000810102294AD00228504607D0C8F8600063
:100F100000E03CE0FFF734FD04463BE04746C8F8FC
:100F20006000FFF72DFD064605E000BFFFF728FD36
:100F3000801B02282BD828688001F7D4D4E9070148
:100F40000843A16A2E4A490802EB0141626A41EA5C
:100F50008211084394F82C1040EA0161C9F800108E
:100F600001203866FFF70CFD044606E03EE000BFB6
:100F7000FFF706FD001B022809D828688001F7D575
:100F800034E000BFFFF7FCFC001B022802D903205D
:100F9000BDE8F88F28688001F4D427E00128F7D055
:100FA000D9F80000E26900F4800191421CD1226A64
:100FB00000F03F01914217D147F6C071626A0140CB
:100FC000B1EB821F10D1A26A4FF0FF3300F4403121
:100FD00003EB5202B1EB024F06D194F82C1000F053
:100FE0007060B0EB016F01D00120D1E70020CFE7A6
:100FF0000438024000004742800E47420070004023
:101000000000FFFF10B5401EB0F1807F01D301202A
:1010100010BD4FF0E02460610F21601701F05BF913
:101020000020A06107202061002010BD10B590F8BD
:101030003C20012A22D0012280F83C20CA688C681A
:1010400022F4407222434C6822F4806222430C68EE
:1010500022F4006222430C6922F4805222434C693C
:1010600022F400522243C969002322F480420A4339
:1010700001684A6480F83C30002010BD022010BD99
:1010800070B590F83C20012A32D0012480F83C4011
:10109000022280F83D2003685A689D6822F070069D
:1010A0000A6832435A60134B02689A4214D0B2F174
:1010B000804F11D0104B9A420ED0104B9A420BD059
:1010C0000F4B9A4208D00F4B9A4205D00E4B9A42D2
:1010D00002D00E4B9A4204D1496825F0800319438F
:1010E000916080F83D40002180F83C10084670BDBA
:1010F000022070BD000001400004004000080040D4
:10110000000C004000040140004001400018004075
:1011100010B5040003D094F83D0010B107E00120A1
:1011200010BD002084F83C00204600F01FF802208B
:1011300084F83D00211D206800F00CFE012084F899
:10114000460084F83E0084F83F0084F8400084F8AC
:10115000410084F8420084F8430084F8440084F895
:10116000450084F83D00002010BD000008B500686F
:101170000649884208D10648016841F00101016032
:10118000006800F00100009008BD00000000014070
:101190004438024070B5044690F83C000025012810
:1011A00017D0012684F83C60022084F83D002068B6
:1011B000826822F0770222F47F4282600868502819
:1011C00038D00DDC20284FD005DC90B3102811D189
:1011D0004AE0022070BD302846D040280AD13BE0CA
:1011E00060282FD070280DD0B0F5805F03D0B0F507
:1011F000005F12D0012584F83D60002084F83C0097
:10120000284670BDCB68D1E90121206800F013FEAB
:101210002068816841F0770109E0CB68D1E90121BC
:10122000206800F008FE2068816841F480418160F8
:10123000E1E719E0CA684968206800F0D1FE502152
:10124000206806E0CA684968206800F0DAFE60217C
:10125000206800F0FAFDCEE7CA684968206800F00F
:10126000BFFE40212068F4E7226801461046F0E7FF
:101270002DE9F0410D46040003D094F83D0018B16B
:1012800008E00120BDE8F081002084F83C00204601
:1012900000F040F8022084F83D002068816844F2A4
:1012A000070291438160211D206800F053FD2268F0
:1012B00090689169166A2B68AF69034340F2033066
:1012C000814341EA0721A868EF6908434FF6FC41D2
:1012D0008843E96840EA0720014328692F6A000132
:1012E00040EA0730084369686D6926F0AA0646EAB5
:1012F0000515294393602268906154F8460B0162FA
:10130000012004F81F09E0752076E0762077A075AB
:101310000020B7E770B586B0044614216846FFF791
:10132000F0F82068B0F1804F31D11A4800240168EC
:1013300041F001010160006800F0010005901548CE
:101340001038016841F001010160016801F00101FC
:101350000591016841F0020101600068022500F07A
:101360000200059020200090CDE901540126CDE92E
:10137000034669460848FFF705FA08200090CDE9C2
:101380000154CDE9034669460448FFF7FBF906B06E
:1013900070BD0000403802400000024000040240DE
:1013A00070B590F83E60044690F83F5090F8423097
:1013B00090F84320022021B104290ED0012E1BD128
:1013C00014E0012E18D1012B16D184F83E0084F8C8
:1013D000420001220021206820E0012D0CD1012AC9
:1013E0000AD184F83F0084F8430014E0012D03D1B2
:1013F000012B01D1012A01D0012070BD84F83E00EB
:1014000084F83F0084F8420084F843000122002160
:10141000206800F003FD01220421206800F0FEFC9A
:101420002068016841F001010160002070BD0000EA
:1014300010B586B0044614216846FFF762F80E49DD
:101440002068884216D10D480021026842F010023F
:101450000260006800F0100005904FF400700090EA
:101460000220CDE901010120CDE9031069460448BD
:10147000FFF788F906B010BD000001403038024087
:101480000010024070B5044690F83C0000260D465E
:1014900001280FD0012084F83C006AB1042A1DD035
:1014A000082A2FD00C2A3FD00126002084F83C00C7
:1014B000304670BD022070BD206800F0CFFC20686F
:1014C000816941F0080181612068816921F004018E
:1014D0008161206881692A69114311E0206800F068
:1014E000EDFC2068816941F40061816120688169B7
:1014F00021F480618161206881692A6941EA0221C1
:101500008161D2E7206800F00FFD2068C16941F0D9
:101510000801C1612068C16921F00401C16120682E
:10152000C1692A69114311E0206800F031FD20688B
:10153000C16941F40061C1612068C16921F4806121
:10154000C1612068C1692A6941EA0221C161ACE731
:1015500010B5040003D094F83D0010B107E001205D
:1015600010BD002084F83C00204600F01EF8022048
:1015700084F83D00211D206800F0ECFB012084F878
:10158000460084F83E0084F83F0084F8400084F868
:10159000410084F8420084F8430084F8440084F851
:1015A000450084F83D00002010BD704710B504468A
:1015B000022249B104290ED0082913D094F8410021
:1015C000012816D0012010BD94F83E000128F9D161
:1015D00084F83E200FE094F83F000128F2D184F80F
:1015E0003F2008E094F840000128EBD184F8402027
:1015F00001E084F841200122206800F00FFC164928
:101600002068164A884201D0904203D1436C43F4CB
:10161000004343642068884213D0B0F1804F10D05B
:101620000F4988420DD00F4988420AD00E4988429E
:1016300007D0904205D00D49884202D00C4988421B
:1016400004D1816801F00701062903D0016841F047
:1016500001010160002010BD0000014000040140B4
:101660000004004000080040000C00400040014021
:101670000018004070477047F8B5016804460868D4
:10168000CA684B6910F00F0F4FF0000559D003F0F6
:10169000010602F49077374365D0C10705D0D10524
:1016A00003D5216C41F001012164410705D5D9071B
:1016B00003D0216C41F002012164810705D5D907CF
:1016C00003D0216C41F004012164010707D502F029
:1016D0002001314303D0216C41F008012164216CC9
:1016E00000293AD0800604D5900602D5204600F0A5
:1016F000C9FC20684069216CC0F38010090700D440
:1017000060B3204600F097FC20684069400621D570
:101710002068143050E8001F21F0400140E800121A
:10172000002AF5D1A06BA8B16C490165A06BFFF749
:1017300017F8002811D0A06B016D01B0BDE8F04092
:10174000084783060FD593060DD52046BDE8F8401F
:1017500000F098BC2046FFF78EFFF8BD2046FFF74B
:101760008AFF2564F8BD266B2023012E79D1C60699
:1017700077D5D60675D50868486800904869400650
:1017800040D5A16B086840680004000CEAD0A28D27
:101790008242E7D9E085C869B0F5807F2DD0206806
:1017A0000C3050E8001F21F4807140E80012002A3C
:1017B000F5D12068143050E8001F21F0010140E805
:1017C0000012002AF5D12068143050E8001F21F0E3
:1017D000400140E80012002AF5D184F83E3025632C
:1017E00020680C3050E8001F21F0100140E8001282
:1017F000002AF5D1A06BFEF76AFFA08DE18D401A9B
:1018000081B229E0A08DE18D401A81B2E08D0028DF
:10181000A8D00029A6D020680C3050E8002F22F470
:10182000907240E80026002EF5D12068143050E870
:10183000002F22F0010240E80026002EF5D184F8A6
:101840003E30256320680C3050E8002F22F0100253
:1018500040E80023002BF5D12046FFF70BFFF8BD31
:10186000FFE705062BD5150629D594F83D0021285C
:10187000F5D1A068B0F5805F01D12069B0B1206AD0
:10188000411C2162216800784860E08C401E000401
:10189000000CE084E3D12068C16821F08001C160C0
:1018A0002068C16841F04001C160D8E7206A008823
:1018B000C0F308004860206A801C2062E5E740060B
:1018C000CDD55006CBD5CA68204622F04002CA606A
:1018D00084F83D3000F0CFF8C1E700002720000871
:1018E00070B5040004D094F83D00002510B106E066
:1018F000012070BD84F83C50204600F023F82420DD
:1019000084F83D002068C16821F40051C160204680
:1019100000F018FC2068016921F490410161206801
:10192000416921F02A0141612068C16841F40051F8
:10193000C1602564202084F83D0084F83E0000202A
:1019400070BD000010B586B0044614216846FEF74D
:10195000D8FD18492068884229D11748002102681B
:1019600042F010020260006800F01000059012487A
:101970001438026842F001020260006800F00100C1
:1019800005904FF4C06000900220CDE901010320D2
:1019900003900720049069460848FEF7F3FE0022F2
:1019A00011462520FFF75AF82520FFF749F806B021
:1019B00010BD000000100140443802400000024009
:1019C000704700002DE9F843044690F83D001F469B
:1019D00016460D4620284CD1C5B1BEB194F83C0046
:1019E000012846D0012084F83C004FF00008C4F8DC
:1019F0004080212084F83D00FEF7C2FFA684814686
:101A0000E684A068B0F5805F03D004E00120BDE863
:101A1000F883206928B12E465FF0000584F83C80E9
:101A20000EE00026FAE78021204600F011FCA0B964
:101A3000AEB116F8010B21684860E08C401EE084CE
:101A4000E08C4B464FF0000200970028EBD14FF09E
:101A50004001204600F0FCFB30B10320D7E735F809
:101A6000020BC0F30800E6E7202084F83D000020C8
:101A7000CDE70220CBE77047FEE70000F0B587B066
:101A800014216846FEF73DFD29480024016841F015
:101A900004010160016801F004010591016841F051
:101AA00080010160016801F080010591016841F049
:101AB00001010160016801F001010591016841F037
:101AC00010010160016801F010010591016841F009
:101AD00040010160016801F040010591016841F099
:101AE000020101600068134E00F002000590002220
:101AF00003213046FEF73EFF0F4F012204213846F6
:101B0000FEF738FF032000900125CDE90154694616
:101B100030460394FEF736FE04200090CDE90154D0
:101B2000694638460394FEF72DFE07B0F0BD00006D
:101B300030380240000002400018024010B596B054
:101B400000240F9410941194129413941C2108A84B
:101B50001494FEF7D6FC20216846FEF7D2FC2848F4
:101B6000264901605321C0E9011440F2E731C0E980
:101B7000031444618461FFF7CBFA08B1FEF7A5FDB9
:101B80004FF480500F900FA91D48FFF703FB08B1D9
:101B9000FEF79BFD1A48FFF7DBFC08B1FEF795FD49
:101BA000139413A916481494FFF76AFA08B1FEF7C4
:101BB0008CFD6020CDE908040A940B940C940D94DC
:101BC000002208A90E480E94FFF75CFC08B1FEF74E
:101BD0007CFD00944FF40050CDE904400294019440
:101BE0000394694606480794FFF720FA08B1FEF708
:101BF0006CFD0348FFF71CFC16B010BD000001404F
:101C00007C00002010B58CB024216846FEF779FCDA
:101C10000024154809944FF080410A94C0E900144B
:101C2000611EC0E90241046184610320CDE9000422
:101C30000120CDE902040494CDE9054007946946EA
:101C400009480894FFF714FB08B1FEF73EFD09941C
:101C500009A905480A94FFF713FA002801D0FEF7F6
:101C600034FD0CB010BD0000C40000200C4810B5BD
:101C70000A4901604FF4E1314160002181600C228A
:101C8000C160C0E904128161C161FFF729FE00282B
:101C900003D0BDE81040FEF718BD10BD0010014094
:101CA0000C010020FEE7FEE770477047FEF76EBEAE
:101CB00030B593B030216846FEF723FC14210CA800
:101CC000FEF71FFC1D480025016841F080510160AE
:101CD000006800F0805011901948016841F480417B
:101CE00001600068022400F48040119001200390FC
:101CF00010200490009406940820CDE90750A820F5
:101D0000CDE9090404200B906846FEF7C5FF08B131
:101D100072B6FEE70CA90F2081E831004FF4A05005
:101D20000F904FF48050109005210CA8FEF7C8FECC
:101D3000002801D072B6FEE713B030BD4038024033
:101D4000007000400248016841F470010160704772
:101D500088ED00E0F0B50268254C264D264E274F51
:101D6000274B4FF0804CA04209D0604507D0A842D5
:101D700005D0B04203D0B84201D0984204D122F03D
:101D8000700E4A6842EA0E02A0421BD0604519D08C
:101D9000A84217D0B04215D0B84213D0984211D003
:101DA000184DA8420ED0184DA8420BD0174DA8428E
:101DB00008D0174DA84205D0164DA84202D0164DA6
:101DC000A84203D122F44075CA682A434D6922F023
:101DD00080022A4302608A68C2620A688262A04264
:101DE00001D0984201D10969016301214161F0BD2F
:101DF000000001400004004000080040000C0040CA
:101E000000040140004001400044014000480140FE
:101E100000180040001C00400020004010B501F0F8
:101E20001F030121046A99408C430462016A9A40AD
:101E30001143016210BD10B5846842EA032224F404
:101E40007F440A432243826010BD826822F0700200
:101E50000A4342F00701816070470000F0B5026A52
:101E600022F001020262036A42688469124E24F081
:101E700073050C682C4323F002058B682B430D4D32
:101E8000A84201D0B04205D123F00807CB683B43FC
:101E900023F00403A84201D0B04205D14D6922F4D9
:101EA000407215438A692A434260846149684163EC
:101EB0000362F0BD0000014000040140F0B5026A79
:101EC00022F010020262026A436884690D6824F4F9
:101ED000E64444EA05248D6822F0200242EA051215
:101EE0000F4D104EA84201D0B04206D1CF6822F06B
:101EF000800242EA071222F04002A84201D0B0421A
:101F000007D14D6923F4406343EA85038D6943EAB1
:101F1000850343608461496881630262F0BD00000B
:101F20000000014000040140F0B5026A22F4807212
:101F30000262026A4368C46922F4007224F07305E5
:101F40000C68124E2C438D6842EA05220E4DA842C1
:101F500001D0B04206D1CF6822F4006242EA0722E3
:101F600022F48062A84201D0B04207D14D6923F427
:101F7000405343EA05138D6943EA05134360C46186
:101F80004968C1630262F0BD0000014000040140E5
:101F900030B5026A22F480520262046A4268C36960
:101FA0000D6823F4E64343EA05238D6824F40054C6
:101FB00044EA0534084DA84202D0084DA84204D195
:101FC0004D6922F4804242EA85124260C361496849
:101FD0000164046230BD00000000014000040140C3
:101FE00010B5036A046A24F001040462846924F0D1
:101FF000F00444EA021423F00A020A4384610262F4
:1020000010BD10B5036A23F0100303628369046AEC
:1020100023F4704343EA023224F0A00343EA01119F
:102020008261016210BD10B5806B0021C185C18441
:10203000FFF721FB10BD01680C3151E8002F22F49D
:10204000907241E80023002BF5D10168143151E86A
:10205000002F22F0010241E80023002BF5D1016B93
:10206000012909D101680C3151E8002F22F010023A
:1020700041E80023002BF5D1202180F83E100021FB
:102080000163704708B590F83E10222901D0022064
:1020900008BD82684FF480539A4201D1016921B191
:1020A000816A9A421BD04AB10AE00268816A52688A
:1020B000C2F308020A80816A891C08E0026972B1D1
:1020C0000268526802F07F020A70816A491C8162CC
:1020D000C18D491E0904090CC18503D019E00268AD
:1020E0005268F1E70168CA6822F02002CA600168FC
:1020F000CA6822F48072CA6001684A6922F001024B
:102100004A61202180F83E10016B012903D0FFF7BE
:1021100057FC002008BD0021016301680C3151E823
:10212000002F22F0100241E80023002BF5D10168B6
:102130000A68D20602D50A6849680091818DFFF7C6
:1021400099FAE6E770B5044600680169E26821F48F
:102150004051114301612169A068E2690843616946
:10216000114308432168CA6849F20C639A43024349
:10217000CA6020684169A26921F44071114341613C
:1021800031492068884202D03049884202D1FEF7A6
:1021900041FD01E0FEF72EFDE269002319216425CF
:1021A0003226B2F5004F626828D0A0FB0101930FE0
:1021B0009200FEF75DF80146B0FBF5F06FF01802F3
:1021C000504301EB800006EB0010B0FBF5F000F08F
:1021D000F002B1FBF5F002EB0012B1FBF5F06FF08D
:1021E0001803584301EB800006EB0010B0FBF5F03C
:1021F00000F00F0021681044886070BDA0FB010151
:1022000092185B41FEF734F80146B0FBF5F002018D
:10221000B1FBF5F06FF01803584301EB800006EBBB
:10222000C000B0FBF5F000F0F80002EB4002B1FB9B
:10223000F5F0584301EB800006EBC000B0FBF5F071
:1022400000F00700D6E70000001001400014014034
:102250002DE9F041984617460E460446069D27E0B4
:10226000681C25D02DB1FEF78BFBA0EB0800A8421F
:102270001ED920680C3050E8001F21F4D07140E8CE
:102280000012002AF5D12068143050E8001F21F018
:10229000010140E80012002AF5D1202084F83D0019
:1022A00084F83E00002084F83C000320BDE8F08163
:1022B0002068006836EA000004D00020B842CFD081
:1022C0000020F3E70120F9E70148FFF7D5B9000046
:1022D0000C010020FEE70907090E002804DB00F1CD
:1022E000E02080F80014704700F00F0000F1E020BB
:1022F00080F8141D70470000FEF750FBFFF7D8FC74
:10230000FFF7BCFBFFF71AFCFFF7B0FCFFF77AFC06
:1023100000210F48FFF74AF93C210E48FFF740F82B
:102320004FF4FA7000F024F80B4C00BF00F040F8B6
:102330000AA264210C486368FEF712F80A48FEF707
:10234000C1F882B2642308490848FFF73BFBEDE778
:102350007C000020C400002000000020456E633A8D
:1023600020256C640D0A0000180000200C010020DC
:1023700070B50D4D040006D5012211462846FEF722
:10238000F9FA002205E0002201212846FEF7F2FAC0
:10239000012202212846FEF7EDFA002C00DA644201
:1023A00002480068446370BD000002407C000020C9
:1023B000074810B50168074C2268891A0A2905D315
:1023C00000682060044800F009F8606010BD00005B
:1023D0001000002000000020C40000200168486AAE
:1023E000002200B24A6270474FF04070E1EE100ADE
:1023F000704700000000000000000102030406070F
:102400000809000000000102030400002C24000859
:102410000000002018000000C40100084424000847
:102420001800002098070000E001000800000000EC
:10243000000000000100000010000000000000008B
:042440000024F40080
:040000050800018965
:00000001FF
